:100000000C942A000C9449000C945A000C9447005C
:100010000C9447000C9447000C9447000C94470044
:100020000C9447000C9447000C9447000C94470034
:100030000C9447000C9447000C9447000C94470024
:100040000C9447000C9447000C9447000C94470014
:100050000C94470011241FBECFE5D8E0DEBFCDBF12
:1000600010E0A0E6B0E0E6EAF3E002C005900D92F1
:10007000A437B107D9F720E0A4E7B0E001C01D9292
:10008000AB37B207E1F70E9489010C94D1010C94BF
:1000900000001F920F920FB60F9211248F93809140
:1000A00074008095809374008F910F900FBE0F9015
:1000B0001F9018951F920F920FB60F9211248F93D5
:1000C00010927A00109279001092740080E882BB3E
:1000D00080916A00809585BB8F910F900FBE0F9025
:1000E0001F9018958091790090917A008A3091053F
:1000F000BCF480E882BB8091790090917A006AE03C
:1001000070E00E94A901FC01E659FF4F80818095B3
:1001100085BB8FED9EE20197F1F700C000000895C6
:100120009C012A5031092935310568F580E882BBE8
:100130008091790090917A002AE030E0B9010E9424
:10014000A901FC01E659FF4F8081809585BB8FEDA9
:100150009EE20197F1F700C0000080E482BB80912D
:10016000790090917A00B9010E94A901FB01E6593A
:10017000FF4F8081809585BB8FED9EE20197F1F75F
:1001800000C0000008959C012456310923383340F3
:1001900008F04EC080E882BB8091790090917A008F
:1001A0002AE030E0B9010E94A901FC01E659FF4FA5
:1001B0008081809585BB8FED9EE20197F1F700C0AD
:1001C00000008091790090917A00B9010E94A90104
:1001D000709378006093770080E482BB8091770011
:1001E00090917800B9010E94A901FC01E659FF4FE6
:1001F0008081809585BB8FED9EE20197F1F700C06D
:10020000000080E282BB8091770090917800B90174
:100210000E94A901FB01E659FF4F8081806880950B
:1002200085BB8FE99FE00197F1F700C000000895BA
:10023000883E93400CF46CC080E882BB80917900CA
:1002400090917A002AE030E0B9010E94A901FC01F6
:10025000E659FF4F8081809585BB8FED9EE2019727
:10026000F1F700C000008091790090917A00B90107
:100270000E94A901709378006093770080E482BBAC
:100280008091770090917800B9010E94A901FC014A
:10029000E659FF4F8081809585BB8FED9EE20197E7
:1002A000F1F700C000008091770090917800B901CB
:1002B0000E94A901709376006093750080E282BB72
:1002C0008091750090917600B9010E94A901FC010E
:1002D000E05AFF4F8081809585BB8FE99FE00197B1
:1002E000F1F700C0000080E182BB80917500909121
:1002F0007600B9010E94A901FB01E659FF4F8081F8
:10030000809585BB8FE99FE00197F1F700C0000061
:1003100008958FEF84BB80EF81BB8FE085BF80ECB9
:100320008BBF78940E947200809174008823D1F36F
:100330008091790090917A00019690937A00809351
:1003400079008037974174F310927A001092790007
:10035000E9CF97FB072E16F4009407D077FD09D05C
:100360000E94BD0107FC05D03EF4909581959F4FFA
:100370000895709561957F4F0895AA1BBB1B51E1AD
:1003800007C0AA1FBB1FA617B70710F0A61BB70B05
:10039000881F991F5A95A9F780959095BC01CD01AA
:0603A0000895F894FFCF60
:1003A600BF86DBCFE6EDFD87FFEF3F065B4F666D51
:0403B6007D077F6FD1
:00000001FF
